:020000040002F8
:10300000785A00204D350200553502005735020030
:10301000593502005B3502005D35020000000000FA
:103020000000000000000000000000005F3502000A
:1030300061350200000000006335020065350200C2
:10304000C139020067350200753D02006735020094
:103050006735020067350200193702006735020044
:1030600067350200673502006735020067350200E8
:1030700067350200673502006735020067350200D8
:1030800067350200113A0200673502006735020019
:10309000D13A020067350200D93A020067350200D2
:1030A00067350200673502006735020067350200A8
:1030B00067350200673502000000000000000000D4
:1030C0006735020067350200673502006735020088
:1030D0006735020067350200673502000000000016
:1030E00000000000000000000000000000000000E0
:1030F00000000000000000000000000000000000D0
:1031000000000000000000000000000000000000BF
:1031100000000000000000000000000000000000AF
:10312000000000000000000000000000000000009F
:10313000000000000000000000000000000000008F
:10314000000000000000000000000000000000007F
:10315000000000000000000000000000000000006F
:10316000000000000000000000000000000000005F
:10317000000000000000000000000000000000004F
:10318000000000000000000000000000000000003F
:10319000000000000000000000000000000000002F
:1031A000000000000000000000000000000000001F
:1031B000000000000000000000000000000000000F
:1031C00000000000000000000000000000000000FF
:1031D00000000000000000000000000000000000EF
:1031E00000000000000000000000000000000000DF
:1031F00000000000000000000000000000000000CF
:10320000DFF80CD000F04AFA00480047119902009C
:10321000785A002030B4044654E8000F0D4644E8C4
:103220000053002BF8D1156030BC704730B4044611
:1032300054E8000F40EA010544E80053002BF7D1A1
:10324000156030BC704730B4044654E8000F00EA03
:10325000010544E80053002BF7D1156030BC7047DE
:1032600030B4044654E8000F80EA010544E80053F6
:10327000002BF7D1156030BC704730B4044654E8D9
:10328000000F00EB010544E80053002BF7D1156057
:1032900030BC704730B4044654E8000FA0EB010581
:1032A00044E80053002BF7D1156030BC7047000094
:1032B00030B450E8012F93B2C48923448489A342D7
:1032C00028BF1B1B0489A34202BFBFF32F8F00201E
:1032D00007E0C3EA020340E80134002CE9D14FF0D3
:1032E00001000A6030BC704750E8012FC2EA024278
:1032F00040E801210029F7D1704730B450E8022F8F
:103300001FFAA2F3C488A34202BFBFF32F8F00208D
:103310000DE0C48923448489A34228BF1B1BC2EA51
:10332000034340E80234002CE8D14FF001000A606A
:1033300030BC704750E8022FC2EA224240E8022126
:103340000029F7D17047034653E8022FD988B2EB22
:10335000324F4FF0000017BF92B241EA014142EAFA
:10336000014104E05A68B2EB324F08BF012043E844
:103370000212002AE8D1704730B4044654E8000F26
:103380000D4644E80053002BF8D1156030BC70475F
:1033900030B4044654E8000F40EA010544E8005305
:1033A000002BF7D1156030BC704730B4044654E8A8
:1033B000000F00EA010544E80053002BF7D1156027
:1033C00030BC704730B4044654E8000F80EA010571
:1033D00044E80053002BF7D1156030BC704730B47F
:1033E000044654E8000F00EB010544E80053002BAD
:1033F000F7D1156030BC704730B4044654E8000F74
:10340000A0EB010544E80053002BF7D1156030BC58
:103410007047000030B4044654E8000F0D4644E8FD
:103420000053002BF8D1156030BC704730B404460F
:1034300054E8000F40EA010544E80053002BF7D19F
:10344000156030BC704730B4044654E8000F00EA01
:10345000010544E80053002BF7D1156030BC7047DC
:1034600030B4044654E8000F80EA010544E80053F4
:10347000002BF7D1156030BC704730B4044654E8D7
:10348000000F00EB010544E80053002BF7D1156055
:1034900030BC704730B4044654E8000FA0EB01057F
:1034A00044E80053002BF7D1156030BC7047000092
:1034B00030B4044654E8000F0D4644E80053002B96
:1034C000F8D1156030BC704730B4044654E8000FA2
:1034D00040EA010544E80053002BF7D1156030BCE9
:1034E000704730B4044654E8000F00EA010544E890
:1034F0000053002BF7D1156030BC704730B4044640
:1035000054E8000F80EA010544E80053002BF7D18E
:10351000156030BC704730B4044654E8000F00EB2F
:10352000010544E80053002BF7D1156030BC70470B
:1035300030B4044654E8000FA0EB010544E8005302
:10354000002BF7D1156030BC70470000064880475B
:1035500006480047FEE7FEE7FEE7FEE7FEE7FEE778
:10356000FEE7FEE7FEE7FEE7F13A02000132020065
:103570002DE9F05F0546002092469B4688460646A8
:10358000814640241BE0284641464746224600F03B
:1035900075F853465A46C01A914110D31146184641
:1035A000224600F05CF82D1A67EB01084F462246D0
:1035B0000120002100F053F817EB00094E41201EB6
:1035C000A4F10104DFDC484631462A464346BDE803
:1035D000F09F0000004870470813030040EA010311
:1035E0009B0703D009E008C9121F08C0042AFAD2B9
:1035F00003E011F8013B00F8013B521EF9D270477D
:10360000D2B201E000F8012B491EFBD27047002224
:10361000F6E710B513460A4604461946FFF7F0FFD1
:10362000204610BD421C10F8011B0029FBD1801A56
:10363000704730B504460020034600E05B1C93420F
:1036400003D2E05CCD5C401BF8D030BD034611F8DE
:10365000012B00F8012B002AF9D118467047202AC7
:1036600004DB203A00FA02F1002070479140C2F1D9
:10367000200320FA03F3194390407047202A04DB0B
:10368000203A21FA02F00021704721FA02F3D040DB
:10369000C2F120029140084319467047064C074D7D
:1036A00006E0E06840F0010394E807009847103412
:1036B000AC42F6D3FFF7A8FD6C1A03008C1A030086
:1036C00070B58C1810F8015B15F0070301D110F8E4
:1036D000013B2A1106D110F8012B03E010F8016B11
:1036E00001F8016B5B1EF9D12B0705D40023521E94
:1036F0000DD401F8013BFAE710F8013BCB1A921CFC
:1037000003E013F8015B01F8015B521EF9D5A142F9
:10371000D8D3002070BD00002DE9F04F89B04FF0E4
:103720000008002008904FF48070079001260024C4
:1037300013E0079807F0CEF848B100BF8148006851
:10374000304020B1079807F0B7F848EA060876003D
:103750000798001D80B20790641C082CE9D34FF431
:10376000BE7007F0B7F850B14FF4BE7007F0A4F880
:1037700048F0004808AA0121002007F083F808F06B
:10378000FF0000B3012600241BE006EA0800B0B1E8
:1037900000BF6D4850F82400C0F30420074600BF66
:1037A000694850F82400C0F301408146204602F0E9
:1037B000A1FF054615B149463846A84700BF760027
:1037C000641C082CE1D308F0004000287ED00020C3
:1037D00006900590002505E04FF0FF3004A941F860
:1037E00025006D1C002DF7D000BF0020069000249E
:1037F0006FE05648005D0390039820F0C0075348DF
:103800000057401C002863D004A9384606F020FB6E
:1038100000285DD003984FEA901A384602F0B2FFB4
:10382000814602F067FF0290029810B9BAF1030FC7
:103830004BD1BAF1030F11D1394605A80246CB0886
:1038400001F0070112F803C04FF0010E0EFA01FE5D
:103850004CEA0E0C02F803C000BF00BF00BF00BF5F
:103860004FF0A041084600F5E06151F82710C1F380
:10387000014900BF08A9384606F0EAFA8346BBF1C1
:10388000000F02D0B9F1020F05D0BBF1000F1BD120
:10389000B9F1030F18D1BAF1030F0FD1B9F1020F2B
:1038A00001D1032000E0022001903846019906F082
:1038B000A6FF0698401CC0B2069000BF029818B13F
:1038C00051463846029A904700BF00E036E000BFFC
:1038D000641C042C8DD3069858B3012703AA012138
:1038E000002006F0CFFF00250AE003A850F82500CD
:1038F00008A951F82510884201D0002702E06D1C6C
:10390000002DF2D000BF17B10020069010E0002576
:103910000CE003A850F8250008A941F8250005A8E7
:1039200050F8250004A941F825006D1C002DF0D0A9
:1039300000BF069800287FF458AF00BF09B0BDE86B
:10394000F08F00000463004010650040AC2F0020A1
:1039500000F01F0201219140024A430942F823105E
:103960007047000080E200E000F01F02012191405A
:103970004209920002F1E022C2F8001170470000F3
:1039800000F01F0201219140024A430942F823102E
:103990007047000000E200E010B5002807DA4A078F
:1039A000140E054A00F00F031B1FD45403E04A070E
:1039B000130E024A135410BD18ED00E000E400E0BD
:1039C00010B54FF4807006F0CDFA60B14FF48070FE
:1039D00006F0D1FA012006F0D7FA01200B49487011
:1039E000002002F0CBFF4FF4827006F0BBFA58B112
:1039F0004FF4827006F0BFFA022006F0C5FA0120EB
:103A00000249887002F0BAFF10BD0000482F002064
:103A100010B500200949086000210948C0F8441188
:103A2000C0F84811C0F84C1100200549C1F8000148
:103A300002493C3908600CF0D5FB10BD4011014033
:103A40000010014010B500F0A7F910BD2DE9F047B6
:103A5000074688461646C24607EB47011B4800EB5F
:103A6000C109D9F8140020B1012811D0022826D1AB
:103A70001EE0484600F0C8F90546B54201D20024D0
:103A800005E0344632465146484600F004FA18E054
:103A9000484600F0B9F90546B54201D2284600E093
:103AA0003046044622465146484600F0F4F908E004
:103AB00032465146484600F0B5F9044601E000247C
:103AC00000BF00BF2046BDE8F0870000043800209A
:103AD00010B50CF091FA10BD10B507F045FD10BD02
:103AE00001480249086070470090D003C4250020B7
:103AF00010B503F0A3FD28B18E480088C0F3042060
:103B00008D49086003F0EEFD10B18C488C49486780
:103B100003F000FE30B18748E0380068C0F342305F
:103B20008849086003F020FE28B18748006820F02B
:103B300080708549086003F02FFE48B1002083495A
:103B400008604FF08041C1F810017E49091F0860EC
:103B500003F04CFE18B103207A496431086003F089
:103B60005DFE68B105207A49086001207849783106
:103B7000086000207649083108603F20091F08606E
:103B800003F064FE002855D06A48E03000687149AF
:103B900008606848E4300068091D08606548E8303E
:103BA0000068091D08606348EC300068091D086062
:103BB0006048F0300068091D08605E48F430006815
:103BC000091D08605B48F8300068624920310860D0
:103BD0005848FC300068091D08605F480068091DEE
:103BE00008605D48001D0068091D08605A480830DB
:103BF0000068091D086058480C300068091D0860FD
:103C0000554810300068534940310860524814301C
:103C10000068091D0860504818300068091D0860D8
:103C20004D481C300068091D08604B482030006872
:103C3000091D086003F0D8FC30B13E48CC3800685C
:103C400000F04F004549086003F022FD40B14448B0
:103C5000006800F0010018B16FF0010040490860F1
:103C600039487438006840F4700037497439086086
:103C700000BF00BF00BFBFF34F8F00BF00BF00BF3A
:103C800000BF00BF00BFBFF36F8F00BF00BF00BF0A
:103C90003448006800F0004028B93248001D006830
:103CA00000F00040F0B301202F49086000BF2F480A
:103CB00000680028FBD015202A49086000BF2B4867
:103CC00000680028FBD015212648001D016000BFB8
:103CD000264800680028FBD000202349086000BF68
:103CE000224800680028FBD000BF00BF00BF00BF13
:103CF00000BFBFF34F8F00BF00BF00BF1248F038B6
:103D0000006800F4E0601A490843001D0E49F039CC
:103D1000086000BF00BF00BFBFF34F8F00BF00BFF0
:103D200000BF00E002E000BF00BFFDE7FFF7D8FEE4
:103D300010BD000024030010403501400DF0ADBA65
:103D400000C007403C050040FCED00E00C010040D5
:103D50001056004020C5004024040010E40E00402E
:103D6000000400400012001004E5014000E401409E
:103D70000000FA0510B50648007F20B10449054847
:103D80000CF092FB03E0024902480CF0ECFA10BD83
:103D9000B42F00200020004010B5124C02202061FA
:103DA000606111A0A0611349E1614FF400712162CB
:103DB0000021A1626162E1620BA0A0640E49E1648E
:103DC000102121650021A1656165E1650BA1E01D60
:103DD000FFF73CFC0AA12046FFF738FC2020A07129
:103DE00010BD0000EC3700205465726D696E616C87
:103DF0000000000064380020643A0020525454004F
:103E0000534547474552000010B501460A69CB6843
:103E10009A4204D88C68641EE41AA01801E0D41AEF
:103E2000601E10BD2DE9F0470446894617464FF045
:103E3000000AE56800BFD4F81080A84503D9A8EBB4
:103E40000500461E04E0A5EB0800401CA1680E1A00
:103E5000A068401BB04201D9304601E0A068401B79
:103E60000646BE4201D2304600E03846064661684A
:103E7000481932464946FFF7B1FBB244B144BF1B73
:103E80003544A068A84200D10025E560002FD2D1BA
:103E90005046BDE8F0872DE9F047044689461546AF
:103EA000E668A068871BAF4208D9616888192A466E
:103EB0004946FFF793FB7019E06010E0B84661686F
:103EC000881942464946FFF789FBA5EB070809EB2D
:103ED000070142466068FFF781FBC4F80C80BDE82B
:103EE000F08702E008C8121F08C1002AFAD1704703
:103EF0007047002001E001C1121F002AFBD170476A
:103F00000146202908DA012088400A4A104008B1F9
:103F1000012070470020FCE7402909DAA1F12000C8
:103F2000012202FA00F008B10120F2E70020F0E7D8
:103F30000120EEE7FC06FFBD00BFEFF3108108464D
:103F400072B670470146082901D30020704719B1A5
:103F5000012901D0042901D10020F7E70120F5E76C
:103F600070B505460C4605B10CB9002070BD287827
:103F700040082178B0EB510F01D00020F6E706226F
:103F8000611C681CFFF755FB08B90120EEE7002013
:103F9000ECE7014601F0030008B90120704700205A
:103FA000FCE70246002104E0505C08B101207047A4
:103FB000491C0629F8D30020F9E710B50346D86854
:103FC000884206D88818401E1C69A04201D80120EA
:103FD00010BD0020FCE7000010B504466CB1084895
:103FE000C068A04209D806480069A04205D320460F
:103FF00005F0B8F908B1012010BD0020FCE7000071
:10400000C825002070B504460D4604F12600FFF7D0
:10401000C8FF0646012D06D0022D0AD0032D0ED072
:10402000042D16D110E0A07910B10EB1012070BDA1
:1040300000BFE07910B10EB10220F8E700BF207A8E
:1040400008B10320F3E700BF607A08B10420EEE76F
:1040500000BF0020EBE70146481C052290FBF2F36D
:1040600002FB1300C0B270470146C87800F004009C
:1040700008B9072070470020FCE710B50122022193
:10408000002002F015F8044600BF1CB1072C01D037
:10409000204610BD00BF07220221012002F008F8CF
:1040A000044600BF1CB1072C01D02046F1E700BF39
:1040B0000A220021084601F0FBFF044600BF1CB1A4
:1040C000072C01D02046E4E700BF0020E1E7000014
:1040D00030B5A9B0A02101A8FFF799FA02208DF808
:1040E000040001208DF8060005208DF8070003204C
:1040F000ADF81C001549089101218DF87D108DF84F
:104100008010282123911E21249101218DF88110F6
:104110004FF448612591B42126910D48279001A9BB
:104120000C4800F082FE044600BF25463DB100BFAA
:1041300009A240F23F41284600F0CEF900BF00BF7F
:104140000121044800F06EFE29B030BDB4230020E8
:10415000B1B70200C82600202E2E5C2E2E5C2E2E1B
:104160005C6D61696E2E630070B50546012D02D14C
:1041700003F00EF842E04FF6FF7210212048FFF7DF
:104180003FFA08201F4908601D4808F0E9FF1D4854
:1041900001681B4809F022FF044600BF264636B1DD
:1041A00000BF19A2FE21304600F096F900BF00BF03
:1041B00014480168124809F067FA0446062C0BD02F
:1041C00000BF26463EB100BF0FA240F205113046A7
:1041D00000F082F900BF00BF03210F4800F02AFF62
:1041E000044600BF26463EB100BF07A240F20911B7
:1041F000304600F071F900BF00BF00BF70BD000085
:10420000A0270020B02300202E2E5C2E2E5C2E2E08
:104210005C6D61696E2E6300C826002070B58CB09D
:1042200004460D461646002005E0C0F10F01615C12
:104230000DF80010401C1028F7D30D2104A8FFF73B
:10424000E6F9002005E02A5CC0F10F0304A9CA5476
:10425000401C0328F7D3684643DF002005E0C0F187
:104260000F0208A9895C3154401C0328F7D30CB015
:1042700070BD10B50446022001F088FD10BD00009D
:1042800010B5044602480178204601F08FF810BDB1
:104290008D24002010B5002407E00749096811F8B3
:1042A0003400012105F04CFF641C0448007884426E
:1042B000F3D3002010BD0000F8240020FC240020CF
:1042C0002DE9F84306460C461746052F02D2072073
:1042D000BDE8F88306F032F838B905F0FFFF05466F
:1042E00000BF0DB12846F3E700BF16480660164828
:1042F00004701648076000201549086015490860D9
:1043000015E006EBC40814480068009098F8020015
:104310008DF8010098F80000104A694605F066FF24
:10432000054600BF0DB12846D2E700BF00BF200000
:10433000A4F10101CCB2E4D1094A0021094800F0FE
:10434000E3F9C5E7F8240020FC2400200025002024
:104350000425002008250020601003008987020042
:10436000E57202005C1003002DE9FC4106460F4691
:10437000144600BF06F004FE00BF00BF06F0A4FB19
:104380000028FBD100BF00BF012E0CD06FF480507D
:10439000304488B1B0F5405F24D06FF440510844F8
:1043A000002833D111E026490988012242EA014060
:1043B00024A106F0E9FC33E021490988012242EA00
:1043C000014028A106F0E0FC2AE025462B881C4984
:1043D00009884FF0010C4CEA01402BA16A6806F0F5
:1043E000E9FC1DE02546A86807F098F98046288872
:1043F0006968CDE9001012490988012343EA0140A8
:10440000434628A1AA6806F0F9FC09E00C4909888E
:10441000012242EA01403A4628A106F0BFFC00BF53
:1044200000BF00BF2B48006800F0010000B100BED3
:1044300000BF22463946304600F05EF8BDE8FC81F8
:104440003C260020534F46544445564943453A20A4
:10445000415353455254494F4E204641494C4544DF
:1044600000000000534F46544445564943453A2006
:10447000494E56414C4944204D454D4F52592041DB
:104480004343455353000000415353455254494F51
:104490004E204641494C45442061742025733A25FD
:1044A000750000004552524F52202575205B257340
:1044B0005D2061742025733A25750000554E4B4EE2
:1044C0004F574E204641554C54206174203078257A
:1044D00030385800F0ED00E0FEB504460E461546B3
:1044E000B0B2ADF80000019502946A46002144F292
:1044F0000100FFF739FFFEBD18B5012300939DF8B9
:1045000000301E4B186059609A606FF4804303447A
:1045100063B1012B19D1194BDA60DB681B88174C8A
:10452000A3612346DB685B68E3610EE0134B1A610D
:104530001B699B68114C636123461B691B88A3613F
:1045400023461B695B68E36100BF00BF0B4B1B6820
:104550000A4B5B68094B9B68084BDB68074B1B6980
:10456000064B5B69054B9B69044BDB6972B600BF68
:104570009DF80030002BFBD162B618BDF42F00204F
:104580002DE9F84307460C469046264800888442A9
:1045900044DC4FF6FF7500200090684600F042F9B9
:1045A00000BF214890F800902048007805F06AFB91
:1045B000484501D1012000E0002030B91B480578B2
:1045C000007805F05FFB194908709DF8000000F0C5
:1045D0002FF94FF6FF7085421ED01548006840F84D
:1045E00035808FB1002C0FDD124909680D4A128801
:1045F00005FB021022463946FEF7F0FF0C48006822
:1046000000EBC500848005E000200949096801EB42
:10461000C5018880002600E0042600E00926304617
:10462000BDE8F8831625002014250020152500205C
:104630000C250020102500202DE9F0411AE0164835
:104640000478164800681649098804FB01051548D6
:10465000006800EBC40086881248006850F8347087
:1046600031462846B8470C48007805F00BFB0A494C
:10467000087000BF00BF002058B900BF0649087885
:1046800009490978814201D1012100E00021002976
:10469000D5D0BDE8F08100001425002010250020B1
:1046A000162500200C2500201525002030B50346D6
:1046B000481C4FF6FF7505EAC004104600F00305DC
:1046C0000DB9012500E000250DB9072030BD0848CF
:1046D00002601019074D28600020074D2870074D13
:1046E000287007480380074801800020EEE700009B
:1046F0000C25002010250020152500201425002061
:10470000162500201825002010B503460C4600BFD2
:104710000B48807808B9082010BD00BF0AB90720EF
:10472000FAE70BB90720F7E71868007C08B1082002
:10473000F2E71968002008744C744A6100BFEBE787
:104740001430002010B50AF029F900200F49087034
:1047500048700B20887000200D4908600D490870D2
:104760000D4908701420FFF7F3F807211420FFF714
:1047700013F91420FFF7F8F800200AF0E5F80AF022
:10478000DDF806490860002010BD0000143000204C
:104790001C2500202C2500202D2500202025002070
:1047A0002DE9F04104460E461746254600BF104845
:1047B000807810B90820BDE8F08100BF0CB908204E
:1047C000F9E7052E01D20720F5E7686908B9082046
:1047D000F1E7687C012801D1304600E000208046E6
:1047E0003B464246314628460BF0ACFCE3E700006E
:1047F0001430002070B50446254600BF0848807874
:1048000008B9082070BD00BF0CB1686908B908205C
:10481000F8E700202874022128460BF0C2FCF1E7DB
:104820001430002010B5044620460AF09DF910BD52
:1048300070B5044625460E488068B0B1ADB9FFF7A3
:104840007BFB06460A4800680A4908600848406839
:104850004FF0E021C1F804010020054988601EB92D
:1048600000BF62B600BF00BF00BF00BF70BD000048
:104870002031002000E100E0F8B505460C4617465F
:104880002088001DB84201D90C20F8BD684679DFA8
:10489000064600BF0EB13046F7E700BF032021886F
:1048A00068542088401C2080192021886854208862
:1048B000401C208020884119BDF800000BF080FECC
:1048C0002188084420800020DFE710B50446637982
:1048D00003F003022179208804F0F8FD10BD10B523
:1048E0000446207918B9204600F008F803E0204675
:1048F000FFF7EBFF00BF00BF10BD00002DE9F04F38
:1049000089B0044600252788384600F0F5FC834628
:10491000384604F07BFA8046C146AA4600223D484C
:104920000178384600F056FDBBF1000F02D109B006
:10493000BDE8F08F6079C0F3800000284CD04FF6BE
:10494000FF764FF0010A07AB01220721404608F02D
:104950003DF8054635B1294638460AF09DFC4FF032
:10496000000A05E04FF6FF71089804F08DF906463D
:104970004FF6FF70864211D0B1464946384604F0E2
:1049800027FA3846FFF77CFC40B938460AF02AFC83
:104990003846FFF775FC08B94FF0000ABAF1000F6E
:1049A0000CD04A460721404608F0C9F805462DB10B
:1049B000294638460AF070FC4FF0000A4FF6FF70A7
:1049C000864208D0384608F06DFA20B1404604F01F
:1049D00007FA019000BF08E0384608F063FA20B1FA
:1049E000404604F0FDF9064600BF02208DF808009D
:1049F000ADF80A706079C0F3800008B1012000E0D2
:104A000002208DF810008DF811A002A803F036F8EE
:104A100000BF8CE789240020002112E00B48D0F869
:104A20001024012306E000BF107A884201D1002340
:104A300002E05268002AF6D100BF0BB10846704769
:104A4000491C0A29EADB4FF0FF30F8E7CC3300209D
:104A5000F0B591B004460D46207DD8B100200990F4
:104A600000BF9DF8240020F00F00401C8DF82400AA
:104A70009DF8240020F0F00010308DF8240000BFD5
:104A8000687B8DF825009DF8260020F00600801C2C
:104A90008DF826001C210AA8FEF7B9FD9DF8280014
:104AA00020F00200801C8DF82800207D08B1012034
:104AB00000E000209DF8281060F304118DF8281004
:104AC00000200B900D900E90207D08B109A800E009
:104AD00000200F900020109000BF01208DF80E00E4
:104AE00042F61920ADF80C0000BF00200290A87B10
:104AF0008DF80800E87B8DF809009DF80A0020F089
:104B00000600801C8DF80A009DF80A0020F00800BD
:104B10008DF80A009DF80A0020F010008DF80A00B8
:104B20009DF80A0020F001008DF80A00287B019012
:104B3000142104A8FEF76BFD03A8049002A80590B9
:104B40000120ADF818000020ADF81A000120ADF8E2
:104B50001C0001A80890A088A31D04AA0AA9A2DF2E
:104B6000064616B1304611B0F0BDA868002855D0F1
:104B700000BF01208DF80E0042F60810ADF80C00C1
:104B800000BF00200290287C8DF8080000BF9DF82F
:104B9000090020F00F008DF809009DF8090020F0B1
:104BA000F0008DF8090000BF9DF80A0020F0060013
:104BB000801C8DF80A009DF80A0020F008008DF88E
:104BC0000A009DF80A0020F010008DF80A009DF8F8
:104BD0000A0020F001008DF80A006846A96801F07B
:104BE0003DF80746142104A8FEF711FD03A8049020
:104BF00002A80590ADF818700020ADF81A00BDF8B5
:104C00001800ADF81C00CDF820D0E08804F10E02A9
:104C100004A9A3DF06461EB13046A4E70020E081C8
:104C20000020A0E72DE9FC410446884616460025F1
:104C300037880020308094F82D0058B13A4631462C
:104C4000404600F061FD054600BF15B12846BDE8AD
:104C5000FC8100BFA07850B13A4631464046FFF78C
:104C60000BFE054600BF0DB12846F0E700BFE07817
:104C700060B1E17848B23B463246414603F0B5F9AF
:104C8000054600BF0DB12846E1E700BF606868B186
:104C9000616891F900003B46324641460BF048FB03
:104CA000054600BF0DB12846D1E700BF2089002886
:104CB0000EDD43460622022104F10800CDE900671B
:104CC0000BF076FD054600BF0DB12846BFE700BFDB
:104CD000208A00280EDD43460722032104F110003C
:104CE000CDE900670BF064FD054600BF0DB1284615
:104CF000ADE700BF208B00280EDD434615221421AE
:104D000004F11800CDE900670BF052FD054600BF25
:104D10000DB128469BE700BF206A58B13B4632469A
:104D20004146206A01F0B7FE054600BF0DB1284696
:104D30008DE700BF606A58B13B4632464146606A23
:104D400004F02CFE054600BF0DB128467FE700BFEA
:104D500094F82C0000280BDD3B46324641462046A5
:104D60000AF062FB054600BF0DB128466FE700BFA1
:104D7000207858B13B4632464146204604F0BEFEFC
:104D8000054600BF0DB1284661E700BF28465EE733
:104D90002DE9F04192B080460D461F2011901090F1
:104DA000B8F1000F17D04046FFF75EF9044600BF88
:104DB0001CB1204612B0BDE8F08100BF11AA08A9BD
:104DC0004046FFF72FFF044600BF0CB12046F1E735
:104DD00000BF08AE02E0002600201190ADB12846C9
:104DE0000AF034FF044600BF0CB12046E2E700BFE2
:104DF00010AA69462846FFF715FF044600BF0CB10C
:104E00002046D7E700BF6F4602E000270020109041
:104E1000BDF84000C3B2BDF84400C1B23A463046C6
:104E200072DFC7E780F82410704770B504460D465E
:104E300005B10CB90E2070BD012020700020E0707B
:104E4000202205F17801201DFEF7C8FB00208C34DC
:104E500004F8680CD5F898002064D5F89C006064CC
:104E60004FF6FF70A087673C00202060A080A071F3
:104E7000253C3C2104F13000FEF7C9FB287884F87A
:104E80003000A97832200155E9783320015569783E
:104E900031200155D5E90412C4E91012D5E90212F6
:104EA000C4E90E12D5E90612C4E9121295F82D10C4
:104EB00084F85D10686AD0B104F16C00606504F19B
:104EC00078016167686A0188606D0180686A81881D
:104ED000606D8180002006E0696A89680A5C04F1DF
:104EE00078010A54401C616D89888142F4D8A86A0F
:104EF00010B304F1A401C4F8A01004F19800A06557
:104F00000C30A16D8860A86A8188A06D8180A86A34
:104F10000188A06D0180002006E0A96A89680A5C0A
:104F200004F1A4010A54401CA16D89888142F4D87F
:104F300095F82C1084F85C10286A50B104F1C40074
:104F40002065286A4188206D4180286A0188206D8B
:104F50000180686808B16968616305F13C0104F18A
:104F60003000FFF715FF0646304664E770B504468B
:104F70000D462E462088102804D0112807D01B2863
:104F80000FD109E02146304606F039FE0AE02146FD
:104F9000304607F06DF805E02146304607F0E4F9A9
:104FA00000E000BF00BF70BD2DE9F04105460E4690
:104FB0003446022D02D0032D14D100E000BF6078EA
:104FC00078B100206070E178204600F033F80746A1
:104FD00037B1D4F8D00018B13846D4F8D01088478B
:104FE00000BF00E000BF00BFBDE8F08170B504461F
:104FF00074DF012084F8D400002084F8D600062154
:1050000033200155002104F13000FFF7C1FE0546B1
:105010000DB1284670BDE178204600F00BF805463A
:1050200035B1D4F8D00018B12846D4F8D01088474C
:105030000020EFE77FB504460E46207810B908201F
:1050400004B070BDE67003F031F818B10120607053
:105050000020F5E7002044F8250FA080A071253C32
:10506000A07910B1E078012809D0E07910B1E0789A
:10507000012804D0E07980B1E07802280DD1D4F87D
:10508000CC0038B1012084F82C000820D4F8CC10D2
:10509000884702E0002084F82C0031462046FEF7C5
:1050A000B1FFE070D4F8CC00A0B1E078032802D0C2
:1050B000E07804280ED1607960B194F8D40048B942
:1050C0000020CC34A0720120607254F8CC19072063
:1050D000884702E0002084F8D5000020009001906D
:1050E000029003908DF800008DF80800E078052804
:1050F0001FD2DFE800F01B03090F150069462046A8
:105100000AF09EFA054615E0694620460AF0A4FA20
:1051100005460FE0694620460AF0ACFA054609E06C
:10512000694620460AF0CBFA054603E00020A0704D
:1051300000E000BF00BFE07838B194F82410684662
:1051400073DF05460DB128467AE7D4F8CC0018B1D4
:10515000A078D4F8CC108847002071E730B5044619
:10516000039D94F8D50008B9082030BD002084F8CC
:10517000D50002B90DB1012000E0002084F8D6006E
:105180000020F2E7F8B504460D4604B10DB90E2033
:10519000F8BD286820604FF6FF706082287920757E
:1051A000FF20207400BF01208DF8020041F60F009F
:1051B000ADF8000000BF221D69460120A0DF0646B1
:1051C0000EB13046E4E729462046FFF741FCDFE711
:1051D00070B504460D4605B104B970BD2E46208851
:1051E000102804D0112807D050280FD109E02146FB
:1051F000304606F001FD0AE02146304606F034FF55
:1052000005E02146304607F0F7F800E000BF00BF98
:1052100000BFE2E72DE9F041044600BF14B90E20BB
:10522000BDE8F08100BF1C2221461C48FEF7D6F9DC
:105230001B481A490860206860B120687ADF05467B
:105240000DB12846ECE7164821680A6802604968F3
:10525000416005E012487BDF05460DB12846DFE7D7
:10526000002617E006EB86000E4901EB800700BF21
:105270004FF6FF70388000BF0B4800EB4610786097
:105280000A4A0021381DFFF73FFA05460DB10320F9
:10529000C6E7761C002EE5D00020C1E700290020DB
:1052A00034240020EC280020CC280020C506030070
:1052B00010B504460348011D426C204609F06CFD00
:1052C00010BD00001C29002010B5044603482246EA
:1052D000016D001D09F049FD10BD00001C290020D2
:1052E00010B5044603482246416D001D09F03DFDFE
:1052F00010BD00001C29002070B5044600250B4895
:105300002246416C001D09F030FD60B1074822467D
:10531000C16C001D09F029FD06460EB1022000E017
:105320000120054600BF284670BD00001C29002052
:105330002DE9F041044600250B482246416C001D32
:1053400009F013FD064666B107482246816C001D30
:1053500009F00BFD07460FB1022000E001200546D1
:1053600000BF2846BDE8F0811C29002010B50024AC
:105370000AE020460BF0EAF920B920460BF0DCF9F0
:10538000204610BD601CC4B2182CF2DB1820F8E7D0
:1053900010B5044620460BF0D9F918B1024850F870
:1053A000240010BD0020FCE77429002070B50546DC
:1053B0000C4620460BF0CAF938B1054850F82410C5
:1053C0002A46543809F0D1FC70BD0020FCE70000EB
:1053D0007429002070B505460C46164620460BF091
:1053E000B5F938B1044800EB840133462A465438F5
:1053F00009F0F3FC70BD00007429002010B50446CC
:10540000204600F049F808B9052010BD2189A0897F
:1054100000229ADFF9E710B5034600BF0BB90E2052
:1054200010BD00BF99811AB154885C811088188121
:105430000020F5E770B504460D4600BF0CB90E20FC
:1054400070BD00BF00BF0DB90E20F9E700BF00BF5F
:10545000686808B90E20F3E700BF00BF286808B9E4
:105460000E20EDE700BF00BF01200A49887041F619
:105470000500088000BF28682060686860604FF6FB
:10548000FF70A0810020208100216181014800F08F
:1054900097F8D5E7AA2400200146088908B1012021
:1054A00070470020FCE770B504460D462E46208864
:1054B000112806D0362809D12146304601F0C0FD1A
:1054C00005E02146304606F0B2FD00E000BF00BF17
:1054D00070BD000070B586B005460C4604F10E069E
:1054E00001208DF804006088ADF8060020780028BF
:1054F0002AD1A08841F60501884225D1A07901284A
:1055000022D1002011E000EBC00204F10E0131F8BD
:10551000121042F62B22914206D13189ADF80810C3
:105520007289ADF80A2003E0401C217A8142EAD852
:1055300000BF08490988032242EA014006A105F09C
:1055400023FC00208DF8040001A928462A68904712
:1055500006B070BDF425002043757272656E74202C
:1055600054696D652053657276696365206469735B
:10557000636F766572656420617420706565722E54
:105580000000000010B50246022000BF0B784C78E6
:1055900043EA042313800446401C0B5D93700446C9
:1055A000401C0B5DD3700446401C0B5D1371044618
:1055B000401C0B5D53710446401C0B5D937110BD84
:1055C00010B5044600BF0CB90E2010BD00BF00BFCF
:1055D00006480078012801D00820F6E700BF0448FB
:1055E0000168204609F074F9EFE700004824002024
:1055F0003C2400200146002200BF09B90E2070475C
:1056000000BF0020054B18600120054B18700020DA
:10561000044B1860044801601046F0E74424002061
:1056200048240020402400203C24002070B504467B
:105630000E4600BF04B970BD00BF00BF06B9FAE74F
:1056400000BF00BF1D480078012800D0F3E700BF6D
:1056500035462088112815D0302804D0322807D0AC
:10566000332814D109E0211D284606F0EFFD0FE094
:10567000211D284606F090F90AE0211D284606F073
:1056800025FC05E0211D284606F00DFD00E000BFC9
:1056900000BF95F8C80278B1208830280CDB20883C
:1056A0004F2809DCA088B5F8CA12884204D1B5F8A1
:1056B000CA12284601F0E4FE00BFBCE748240020DF
:1056C00070B504460D4600BF0CB90E2070BD00BF7A
:1056D00000BF0B480078012801D00820F6E700BF82
:1056E0000848006808B90820F0E794F8C70208B134
:1056F0001120EBE72946204601F0C2FEE6E7000054
:1057000048240020442400202DE9FC4105460C4695
:10571000174620880930B84202D90C20BDE8FC8128
:1057200068466DDF064600BF0EB13046F6E700BFA3
:105730000820218868542088401C20801B20218854
:1057400068542088401C208020882844DDF80110FF
:105750000160BDF8051081802088801D20809DF8A3
:105760000000400818B900202188685402E0012098
:10577000218868542088401C20800020CEE700004B
:105780007FB5044600BF01208DF80E0041F60A00E7
:10579000ADF80C0000BF564A03A90120A0DF054662
:1057A00015B1284604B070BD208800280DDD514891
:1057B0000090228804F13C0342F62920616800F041
:1057C000E7FF05460DB12846ECE7208900280DDDEE
:1057D00049480090228904F13C0342F62420E16804
:1057E00000F0D6FF05460DB12846DBE7208A0028E9
:1057F0000DDD42480090228A04F13C0342F6252048
:10580000616900F0C5FF05460DB12846CAE7208B47
:1058100000280DDD3A480090228B04F13C0342F64B
:105820002720E16900F0B4FF05460DB12846B9E72D
:10583000208C00280DDD33480090228C04F13C03BD
:1058400042F62620616A00F0A3FF05460DB1284606
:10585000A8E7208D00280DDD2B480090228D04F153
:105860003C0342F62820E16A00F092FF05460DB1A4
:10587000284697E7206B90B101A8216B0AF0D8FA6F
:10588000224804F13C03082201A9009042F623209B
:1058900000F07EFF05460DB1284683E700BF606B30
:1058A00070B11B480090606B027904F13C03016801
:1058B00042F62A2000F06CFF05460DB1284671E73C
:1058C000A06B90B101A8A16B08F09AFB114804F1FC
:1058D0003C03072201A9009042F6502000F058FF37
:1058E00005460DB128465DE700BF00205AE70000DD
:1058F000AE240020B0240020B8240020C0240020C2
:10590000C8240020D0240020D8240020E024002037
:10591000E8240020F0240020F8B505460F4628882A
:10592000212850D004DC102807D011286FD134E092
:105930003B285BD056287CD16AE03F490988032286
:1059400042EA01403DA105F01FFA072000F0DEFB0E
:10595000044600BF26463EB100BF3BA240F2633181
:105960003046FEF7B9FD00BF00BFA8883A4908805D
:1059700000224FF4003139480068FEF711FF044659
:1059800000BF26463EB100BF2FA240F2663130462E
:10599000FEF7A2FD00BF00BF4CE0274909880322A3
:1059A00042EA01402EA105F0EFF94FF6FF702A49B7
:1059B0000880A8882E498989884203D14FF6FF7054
:1059C0002B49888136E000200090A88869468FDF47
:1059D000044600BF26463EB100BF1BA24FF45F71D4
:1059E0003046FEF779FD00BF00BF23E0A8881321F1
:1059F00076DF044600BF26463EB100BF12A240F249
:105A000085313046FEF768FD00BF00BF12E010E0B0
:105A1000A888132176DF044600BF26463EB100BFAA
:105A200009A240F28D313046FEF756FD00BF00BF9F
:105A300000E000BF00BFF8BD3C260020436F6E6E43
:105A400065637465642E00002E2E5C2E2E5C2E2E57
:105A50005C6D61696E2E6300AE230020440E03006E
:105A6000446973636F6E6E65637465642E00000035
:105A70008C26002070B505460E462888102802D0D6
:105A800011282CD115E01748006860B901F0FCF826
:105A9000044600BF34B11448006818B120461249CA
:105AA0000968884700BF0F480068401C0D4908601E
:105AB00016E00C480068401E0A4908600846006865
:105AC00060B9FEF7DAFA044600BF34B10648006850
:105AD00018B1204604490968884700BF00E000BFAC
:105AE00000BF70BD302400202C24002070B5044677
:105AF0000D462088102806D0112808D012280ED074
:105B0000502810D107E0204606F03EF80CE0204671
:105B100006F074FA08E0204606F042FC04E0204655
:105B200006F01AF800E000BF00BF70BD70B5044673
:105B30000E462088102804D011281FD01A2842D1E0
:105B400020E008F05FFEA08808F0C8FC30B900BF74
:105B50001EA2E5210420FEF7BFFC0EE0E07B022838
:105B600001D1012000E000200546A2882B462649ED
:105B7000A1F1480009F031F900BF24E0A08808F045
:105B800063FE20E0207A0121B1EB101F01DA012031
:105B900000E000200346A2881B49091DA1F14C002A
:105BA00009F01BF9207A0221B1EB101F01DA012064
:105BB00000E000200346A28813490831A1F15000FB
:105BC00009F00BF900BF00BF70BD00002E2E5C2E47
:105BD0002E5C2E2E5C2E2E5C2E2E5C2E2E5C636F89
:105BE0006D706F6E656E74735C626C655C636F6D17
:105BF0006D6F6E5C626C655F636F6E6E5F73746118
:105C000074652E63000000006829002070B504460A
:105C10000D4600BF0748007800B970BD00BF2046A0
:105C200002F058FF204609F0A7FD204602F066FC6E
:105C300000BFF2E77824002070B504460D462846E0
:105C4000FDF7F0FC2080656070BD70B5044620460D
:105C50000AF0B0FC054605F0010070BD2DE9F041E9
:105C600005460E46002432782146641C6A54727838
:105C70002146641C6A5400BF022C01D1012000E0BF
:105C80000020074637B900BF04A247210020FEF7D5
:105C900023FC00BF00BF2046BDE8F0812E2E5C2E05
:105CA0002E5C2E2E5C2E2E5C2E2E5C2E2E5C636FB8
:105CB0006D706F6E656E74735C626C655C636F6D46
:105CC0006D6F6E5C626C655F7372765F636F6D6D36
:105CD0006F6E2E630000000038B505F00DFC044621
:105CE00000BF25463DB100BF15A24FF4757128468F
:105CF000FEF7F2FB00BF00BF0020009069460120C4
:105D000005F06EFA044600BF25463DB100BF0CA267
:105D100040F2DA312846FEF7DFFB00BF00BF6846DD
:105D200005F000FB044600BF25463DB100BF04A2BC
:105D300040F2DE312846FEF7CFFB00BF00BF38BD82
:105D40002E2E5C2E2E5C2E2E5C6D61696E2E6300F5
:105D500001460148405C70474D0E030010B50146F6
:105D6000094B585C00BF4FF0A044234600BFD3F856
:105D70001045C44004F001040CB1012000E00020F3
:105D8000024682F0010010BD4D0E030010B5024620
:105D90000949885C00BF4FF0A0442146D1F8043582
:105DA000012484409C43C1F80845012484401C40E0
:105DB000C1F80C4500BF10BD490E030010B50446E4
:105DC0000249085D012104F03FFD10BD490E0300AA
:105DD00010B504460249085D002104F035FD10BDF0
:105DE000490E030010B50146094B585C00BF4FF047
:105DF000A044234600BFD3F80445C44004F0010486
:105E00000CB1012000E00020024682F0010010BD2C
:105E1000490E03007CB500240CE00948055D002014
:105E200000900346012211460190284604F0A6FC8A
:105E300000BF641C042CF0D300F004F87CBD00000B
:105E4000490E030010B5002403E02046FFF7B6FF1B
:105E5000641C042CF9D310BD10B5002403E02046C7
:105E6000FFF7B6FF641C042CF9D310BD02464FF0B7
:105E7000FF30002106E0054B5B5C934201D10846F0
:105E800002E0491C0429F6D300BF70474D0E030001
:105E900070B505460C4600260648056014B120463C
:105EA00009F0DBFE0448006810B9FEF7E6F8064684
:105EB000304670BD2C2400203024002010B5002076
:105EC00000F048FB044600BF1CB1062C01D0204660
:105ED00010BD00BF012000F03DFB044600BF1CB117
:105EE000062C01D02046F3E700BF0020F0E70000B9
:105EF0002DE9F04106460F464FF0000800243046D9
:105F0000FFF7B4FF0446042C3ED20FB3012F02D09A
:105F1000022F38D130E004EB4400214911F8008011
:105F200004EB44000844407850B11E4A4FF400414D
:105F30001D480068FEF734FC05460DB91948067087
:105F400004EB4400164908448078184908551AE0C3
:105F500015480068FEF74EFC1448005D04EB440150
:105F60000F4A11448978884205D104EB4400114658
:105F7000084490F8028006E004EB44000849084415
:105F800090F8018000BF00BFB8F1000F06D00848AC
:105F9000006818B14046064909688847BDE8F081A5
:105FA000A0280020242400205C0E030025240020CB
:105FB0002024002010B504462046FFF7CFFE10BD78
:105FC00070B50546042D09D0072D1BD00A2D02D02F
:105FD0000E2D45D12FE009F097FB42E01321224816
:105FE000008876DF0446082C0BD000BF26463EB161
:105FF00000BF1EA240F2AA313046FEF76DFA00BF84
:1060000000BF2EE01D4880894FF6FF71884211D1F4
:106010001B48FEF7EBFF0446082C0BD000BF2646BA
:106020003EB100BF11A24FF46D713046FEF754FA35
:1060300000BF00BF15E0114880894FF6FF7188420C
:106040000DD00E48FFF7DAF90446052C07D10D49AB
:106050000988032242EA01400BA104F095FE00E00A
:1060600000BF00BF70BD0000AE2300202E2E5C2EAE
:106070002E5C2E2E5C6D61696E2E63008C260020D6
:10608000C82600203C26002043757272656E74207D
:1060900054696D6520536572766963652069732064
:1060A0006E6F7420646973636F76657265642E0029
:1060B00030B503460020042B23D2012A07D1012941
:1060C00003D103F10E04E4B200E00024224679B1CA
:1060D000012902D0022911D104E003EB43040A4D47
:1060E0002A550DE003EB4304074D2C44627007E092
:1060F00003EB4304044D2C44A27001E0072000BFD1
:1061000000E0072030BD0000A028002070B5044644
:1061100000250548007800F0010018B1204600F085
:106120005BF80546284670BD182400202DE9F04193
:1061300005460F4600241F4805601F48076005F00C
:10614000020000B3002606E0012211463046FFF7A8
:10615000AFFF0446761C042E01D2002CF4D034B9D3
:1061600040F2666204211548FEF7AAF8044614B905
:10617000FEF790F804462CB9114A00211148FEF7A9
:10618000C3FA044600BF05F0010008B1FFF742FE64
:106190002CB90D4A00210D48FEF7B6FA04462CB979
:1061A0000B4A01210B48FEF7AFFA04462046BDE832
:1061B000F08100001824002020240020600E03003D
:1061C000356602005C0E0300A9930200540E030022
:1061D00073420200580E03002DE9F04704460026E2
:1061E0000025D748007820B10020D549087003F079
:1061F000C7F8182C79D2DFE804F00C11124579ADFC
:10620000F1FFEEEDECEBEAE9E8E7E6E5E4E3E2E1F5
:10621000E0DF03F0B5F8CB4804708DE100BF00204B
:10622000FFF7E0FD58B10020FFF7C8FD022C02D1B6
:106230004FF4E16001E04FF47A60054609E0002088
:10624000FFF7C6FD022C01D1C82001E04FF4C87051
:106250000546BC4804704FF40040A5FB00204FF4F5
:10626000FA73D71840F100015A0000233846FDF7B1
:106270007FF9814600224946B3480068FEF790FA4C
:10628000064659E10020FFF7ADFD58B10020FFF7A9
:1062900095FD032C02D14FF4487001E04FF47A6071
:1062A000054609E00020FFF793FD032C01D1C8202B
:1062B00001E04FF4C8700546A24804704FF4004056
:1062C000A5FB00204FF4FA73D71840F100015A00E3
:1062D00000233846FDF74CF98146002249469A488A
:1062E0000068FEF75DFA064626E124E10020FFF78C
:1062F00079FD58B10020FFF761FD042C02D14FF465
:106300007A6001E04FF47A6005460AE00020FFF76A
:106310005FFD042C02D14FF4C87001E04FF4C87047
:106320000546884804704FF40040A5FB00104FF468
:10633000FA73CF1840F100015A0000233846FDF7E8
:1063400017F98146002249467F480068FEF728FA7F
:106350000646F1E00020FFF745FD50B10020FFF7B1
:106360002DFD052C01D1C82001E04FF47A600546CF
:1063700009E00020FFF72CFD052C01D1C82001E029
:106380004FF4C87005466F4804704FF40040A5FBF9
:1063900000204FF4FA73D71840F100015A0000238F
:1063A0003846FDF7E5F88146002249466648006810
:1063B000FEF7F6F90646BFE0B8E0B6E0AAE0A1E0D5
:1063C00098E092E05FE05DE05BE059E057E051E08B
:1063D00042E033E024E015E00EE0FFE70020FFF7A5
:1063E000D5FC58480470002240F6CD41564800685C
:1063F000FEF7D6F906469FE00020FFF7E9FC51487A
:10640000047099E001204E490870FFF7BFFC00229C
:1064100040F6CD414C480068FEF7C2F906468BE0D5
:10642000012047490870FFF7B1FC00224FF480417A
:1064300045480068FEF7B4F906467DE00120404972
:106440000870FFF7A3FC002240F6CD413E480068EB
:10645000FEF7A6F906466FE0012039490870FFF7FC
:1064600095FC00224FF4804137480068FEF798F908
:10647000064661E0FFF7F0FC324804705CE000BFC4
:1064800000BF00BF00BF31480068FEF7B3F9064601
:10649000C4F1110515B30EBB012D18D9A8B2C8213E
:1064A00048434FF4004180FB01304FF4FA729F18CB
:1064B00040F10001520000233846FDF759F88146AB
:1064C0000022494621480068FEF76AF90646022084
:1064D000FFF77EFC01201E49087005E00220FFF74F
:1064E0006DFC00201A49087026E002F049FF1548AB
:1064F000047021E002F044FF0020FFF769FC11481E
:10650000047019E002F03CFF0120FFF761FC0D4828
:10651000047011E002F034FF0020FFF759FC012065
:10652000FFF756FC0748047006E000BFFFF794FC35
:106530000448047000E000BF00BF3046BDE8F087AB
:106540001524002014240020540E0300580E0300CC
:106550001C24002070B504462046FFF7F9FB0546D1
:10656000032104F033F9002070BD00002DE9F84F3D
:1065700005460E46AF1C4FF002084FF001090020FF
:1065800000906846FEF74EF91B48006830601A48D4
:10659000006819494968411A17488068401CA0EBF7
:1065A000010A07EB080B0BE003F04CF912480068F6
:1065B00011494968411A10488068401CA0EB010A43
:1065C000D345F1D80C4800680B49896808400A494E
:1065D0000C3101EB8004206820F00300C01C206017
:1065E0000548006838440C3908609DF80000FEF743
:1065F0001FF94846BDE8F88FCC33002070B504463B
:106600000D46A168481CA06020684554D4E90110DB
:10661000884202D3204603F0B0FE70BD04484068B3
:1066200003490968884201D1012070470020FCE736
:10663000CC33002010B5044620780221FFF758FC27
:1066400010BD0000F8B5054615490320FFF76EFDA3
:10665000044600BF26463EB100BF12A240F2F73109
:106660003046FDF739FF00BF00BF69460020FFF745
:106670000FFC044600BF26463EB100BF09A240F20F
:10668000FA313046FDF728FF00BF00BF9DF800003B
:10669000022801D1012000E000202870F8BD000090
:1066A000C15F02002E2E5C2E2E5C2E2E5C6D616969
:1066B0006E2E630001468879012809D108790128E6
:1066C00006D1488842F60212904201D1012070475B
:1066D0000020FCE74FF0FF31054A42F8201008285F
:1066E00004DBFF23A0F1080150325354704700002F
:1066F0005C2F00200146024850F82100704700003E
:106700005C2F00202DE9F04F03460C464FF0FF3977
:106710000AB1002000E0082084460AB1082000E009
:106720000C208046614624E0154850F82100401CAA
:10673000F0B91D460846274616464FFA80FBDFF89B
:1067400040A00AF1300A0AF805B0DFF834A04AF890
:1067500020704EB94FFA85FBA0F1080ADFF820E05F
:106760000EF1500E0EF80AB000BF4FFA81F902E0A8
:10677000491C4145D8D300BF4846BDE8F08F000012
:106780005C2F002001460148405670478C2F0020A6
:106790002DE9F0438FB007460D4614461E46DDF83E
:1067A000588000BF0DB1012000E000208146B9F102
:1067B000000F06D100BF35A287210020FDF78CFE17
:1067C00000BF00BF00BF002C01DD012000E0002061
:1067D0008146B9F1000F06D100BF2CA2882100200C
:1067E000FDF77AFE00BF00BF1C2107A8FCF70FFFD2
:1067F0009DF81C0020F00200801C8DF81C00002079
:1068000008900A900B900C900D9000BF01208DF81D
:106810003A00ADF8387000BF0020019030788DF854
:10682000040070788DF805009DF8060020F0060041
:10683000801C8DF806009DF8060020F008008DF8F9
:1068400006009DF8060020F010008DF806009DF867
:10685000060020F001008DF80600142102A8FCF7C4
:10686000D6FE0EA8029001A80390ADF810400020BB
:10687000ADF81200ADF814400695434602AA07A9E8
:1068800012480088A2DF0FB0BDE8F0832E2E5C2EE8
:106890002E5C2E2E5C2E2E5C2E2E5C2E2E5C636FBC
:1068A0006D706F6E656E74735C626C655C626C6556
:1068B0005F73657276696365735C626C655F64695A
:1068C000735C626C655F6469732E6300AE240020A4
:1068D000F8B504460E4694F8C60200EB8001C1EB01
:1068E000801004EB400594F8C502B8B194F8C522B5
:1068F000521ED1B294F8C62202EB8203C3EB82127D
:1069000004EB420501EBC10305F10A0202EB43006F
:106910000289521C92B2ADF8002002E0E888ADF87E
:1069200000002889ADF802006946304696DFF8BDC0
:106930002DE9F04104460D464FF6FF76304684427D
:106940000AD14FF48071284607F0A2F80646B6F542
:10695000807F0FD126460DE0FF2C0BDC2146284618
:1069600007F086F807460FB1204601E04FF6FF70AA
:10697000064600BF3046BDE8F081000070B5054610
:106980000DB9094C01E0084C083409E0204602F03A
:10699000F1FC064606B904E028467168884700BF46
:1069A000F4E700BF70BD0000502F00202DE9F04734
:1069B00082461F480068002836D01D4800680568D8
:1069C00007F0BCFF07461B4804682146384609F01B
:1069D00099FAC61C1848007808B907F0C1FFAE4202
:1069E00001D2284600E03046044424F07F4420468B
:1069F00007F09EFF07F0A2FF80463946404609F0A7
:106A000081FA00F103093946204609F07BFA8145F5
:106A100009D907F093FF814607F08AFF2F2003F082
:106A2000C5FA09F02BFC01E007F0B8FFBDE8F087DC
:106A30001C250020202500202E2500200146088846
:106A4000062808DB0888B0F5486F06DD08884FF691
:106A5000FF72904201D0072070474888062808DB63
:106A60004888B0F5486F06DD48884FF6FF729042BF
:106A700001D00720F0E708884FF6FF72904208D057
:106A80004888904205D008884A88904201DD072056
:106A9000E2E70020E0E72DE9F04106460D46144606
:106AA00098462088801D404502D90C20BDE8F08121
:106AB0003046FFF7C3FF074600BF0FB13846F5E782
:106AC00000BF0520218868542088401C20801220A7
:106AD000218868542088401C2080228851193088E1
:106AE00009F06EFD218808442080228851197088A1
:106AF00009F066FD2188084420800020D6E70000C8
:106B000010B5044600BF04A240F2D1212046FDF793
:106B1000E3FC00BF10BD00002E2E5C2E2E5C2E2E3E
:106B20005C6D61696E2E630030B587B01C216846CC
:106B3000FCF76DFD002000904FF4203001904FF4E1
:106B40007020029003208DF80C000020ADF80E009C
:106B50008DF810000A4805900A4806906846FEF72E
:106B600059FB044600BF25463DB100BF06A24FF4C5
:106B70003A712846FDF7B0FC00BF00BF07B030BD3A
:106B800019BB0200016B02002E2E5C2E2E5C2E2EF5
:106B90005C6D61696E2E6300F8B505460C46607A3F
:106BA00088B9207A10B91048476801E00E48876814
:106BB0002A4639466068FDF7F3FD064616B13046B1
:106BC00008F022FB0EE0002020720748406948B11F
:106BD00001208DF80000ADF8025003484169684675
:106BE000884700BFF8BD000000290020F0B585B03F
:106BF00004460D4617461E4614220B496846FCF70C
:106C0000EDFCADF802408DF80850ADF80A708DF833
:106C10000C600022054801782046FEF7DBFB684641
:106C200000F02CFF05B0F0BDE80F03008924002020
:106C300010B586B00446208805F080FD00BB208892
:106C4000FEF742FB30B92088012241F2060100F034
:106C50008BFC15E0208800220A490978FEF7BAFB70
:106C600002208DF804002088ADF8060000208DF881
:106C70000C0000218DF80D1001A800F0FFFE00BFF0
:106C800006B010BD8924002010B50122002108465D
:106C9000FFF70EFA044600BF1CB1072C01D02046B6
:106CA00010BD00BF072202210120FFF701FA0446B0
:106CB00000BF1CB1072C01D02046F1E700BF042221
:106CC00002210020FFF7F4F9044600BF1CB1072C95
:106CD00001D02046E4E700BF0020E1E72DE9F041C4
:106CE00004460D4617460A2F02D00C20BDE8F0815D
:106CF000002629462046FEF745FC06443046761C11
:106D0000285C20723046761C285CA072A85D217B2E
:106D100060F300012173A85D4008217B60F341010D
:106D20002173A85D8008217B60F382012173A85D37
:106D3000C008217B60F3C30121730020D6E7000067
:106D400010B5044600BF04A24FF4DF712046FDF7E2
:106D5000C3FB00BF10BD00002E2E5C2E2E5C2E2E1D
:106D60005C6D61696E2E630010B504465849098850
:106D7000032242EA014057A104F006F85449098869
:106D8000032242EA014057A103F0FEFF217B574B4B
:106D900053F821204E490988032343EA014054A1B6
:106DA00003F0FCFFE07940B949490988032242EA2F
:106DB000014054A103F0E8FF08E0E2794449098862
:106DC000032343EA014055A103F0E8FFA179584BA2
:106DD00053F821203E490988032343EA014055A185
:106DE00003F0DCFFA08840B939490988032242EA50
:106DF000014055A103F0C8FF08E0A2883449098882
:106E0000032343EA014056A103F0C8FF3049098833
:106E1000032242EA014057A103F0B6FF227A2C492F
:106E20000988032343EA014054A103F0B7FF627AC3
:106E300027490988032343EA014054A103F0AEFF28
:106E4000A27A23490988032343EA014053A103F0AE
:106E5000A5FFA27B1E490988032343EA014053A1F1
:106E600003F09CFF1A490988032242EA014057A116
:106E700003F08AFF217CC1F3C0021549098803236E
:106E800043EA014056A103F089FF217CC1F380024F
:106E90000F490988032343EA014057A103F07EFF0D
:106EA000217CC1F340020A490988032343EA0140D7
:106EB00057A103F073FF217C01F001020449098806
:106EC000032343EA014058A103F068FF10BD00000E
:106ED0003C2600200D0A43757272656E7420546959
:106EE0006D653A000D0A446174653A00C0230020C4
:106EF00009446179206F66207765656B2020202525
:106F00007300000009446179206F66206D6F6E7414
:106F1000682020556E6B6E6F776E000009446179B2
:106F2000206F66206D6F6E74682020256900000058
:106F3000E0230020094D6F6E7468206F662079652C
:106F400061722025730000000959656172202020BC
:106F500020202020202020556E6B6E6F776E000061
:106F60000959656172202020202020202020202522
:106F7000690000000D0A54696D653A0009486F7593
:106F8000727320202020202569000000094D696EC1
:106F9000757465732020202569000000095365631E
:106FA0006F6E64732020202569000000094672611D
:106FB0006374696F6E732025692F323536206F66D2
:106FC0002061207365636F6E640000000D0A4164E8
:106FD0006A75737420726561736F6E3A0D000000FC
:106FE000094461796C6967687420736176696E67BA
:106FF00073202578000000000954696D65207A6FC0
:107000006E65202020202020202025780000000010
:107010000945787465726E616C2075706461746581
:107020002020257800000000094D616E75616C20FC
:1070300075706461746520202020257800000000B0
:1070400070B586B005460C460026A889A1888842FE
:1070500001D006B070BDE088D8B9E28904F1100112
:1070600002A8FFF73BFE06461EB104208DF804007F
:107070000BE002A800F00FF806461EB104208DF8C0
:10708000040002E003208DF8040001A928462A68C4
:10709000904700BFDDE70146088842F20F72904238
:1070A00006DC088840F22E62904203DA088808B1B4
:1070B0000B20704788780C2801DD0B20F9E7C87891
:1070C0001F2801DD0B20F4E70879172801DD0B20CC
:1070D000EFE748793B2801DD0B20EAE788793B2878
:1070E00001DD0B20E5E7087A072801DD0B20E0E74A
:1070F0000020DEE77CB504460D460020009001909C
:10710000A81D00EBC4008079ADF80000A81D00EBBD
:10711000C4008079ADF8020000226946204690DF65
:1071200006464EB105490988012242EA014033462C
:107130002246034903F03EFE7CBD0000E825002006
:107140009414030010B5044621460248FEF7C2F924
:1071500010BD00008C26002070B50848FEF74AFAE2
:10716000044600BF25463DB100BF05A240F24B4199
:107170002846FDF7B1F900BF00BF70BD45710200A0
:107180002E2E5C2E2E5C2E2E5C6D61696E2E6300A1
:1071900070B50B490988032242EA014009A103F0B6
:1071A000F3FD06F069FE044600BF254635B100BF79
:1071B00008A2E7212846FDF78FF900BF00BF70BD88
:1071C0003C260020457261736520626F6E647321F6
:1071D000000000002E2E5C2E2E5C2E2E5C6D616950
:1071E0006E2E630070B506460D460EB1012070BDCF
:1071F000287920B1012809D0022813D10FE00220FC
:107200002871284607F0D4F904460DE0284600F01E
:10721000AFFE04460A2C01D141F61D5404E041F6AC
:107220001D5401E00F2400BF00BF2046DFE72DE919
:10723000F84F04460F4690464FF0000B94F8C602F4
:1072400000EB8001C1EB801004EB400594F8C5020F
:1072500000EBC00105F10A0000EB410A94F8C502F9
:10726000401C2979884207D16B46002251462046AE
:1072700002F03DF8834627E094F8C5621FE02879C4
:10728000401EB04202D14FF0000906E0701C00EB36
:10729000C00105F10A0000EB41096B464A46514620
:1072A000204602F024F810B14FF0010B0AE0CA4664
:1072B00094F8C502401C84F8C502701CC6B2287937
:1072C000B042DCDC00BF00BFBBF1000F04D10120E5
:1072D00038700020BDE8F88F0020387069464046BD
:1072E00097DFF7E72DE9F0478146002532E01C489B
:1072F000006800EBC5042178012000FA01F6194866
:107300000068304020B317480068B0431549086052
:10731000207802F0D9FF07462178012088401249E1
:1073200009680840217807FA01F188420FD1607896
:10733000012800D100E00020784080F0010860685A
:1073400020B108F0FF0120786268904700BF00BFBD
:10735000681CC5B2054800788542C8DBBDE8F087E7
:10736000F82400200825002004250020FC2400200B
:1073700070B5044620793D2802D141F23D0001E07C
:107380004FF48850054620880022294602F09EF8D6
:1073900070BD00002DE9F04104460D46164694F8F4
:1073A000C60200EB8001C1EB801004EB40084046B0
:1073B00007F06EFA0746B7B31C480068062832D2B9
:1073C0001B481A49096800EBC11046801849174A42
:1073D000126801EBC211081D76224146FCF7FEF847
:1073E0003DB100201249114A126801EBC211087028
:1073F00006E002200E490D4A126801EBC211087026
:107400000B480A49096800EBC110C76707480068C4
:10741000401C064908600846006806490968884219
:1074200001D106F007F8BDE8F081000040240020FB
:10743000EC290020442400202DE9F041A0B00446AE
:107440000D46164694F8C60200EB8001C1EB801091
:1074500004EB4008404607F01BFA074657B17C2270
:10746000064901A8FCF7BAF8ADF80660029501A834
:10747000B84700BF20B0BDE8F0810000800E0300D7
:107480002DE9F04104460D464FF433712046FCF7D8
:10749000BEF8A4F8CA5200201849086084F8C9024E
:1074A00084F8C60284F8C50294F8C60200EB800195
:1074B000C1EB801004EB400794F8C602104901EBC1
:1074C0008000006838603A460121284694DF06466D
:1074D000112E0CD000BF16B13046BDE8F08100BFC0
:1074E000012084F8C702002084F8C80204E00120CB
:1074F00084F8C70284F8C8020020EEE74024002088
:10750000D4290020014614480078144A1278904289
:107510001DD011480078401C0F4A107010460078AA
:10752000022801D1002010700D480B4A127850F843
:10753000220008600B4A086812681044094A10606B
:107540001046006820F07F40106001207047002046
:10755000086000BFFAE700002C2500202D25002040
:10756000242500202025002070B506460C4615462F
:107570002B46224600213046FFF738FB70BD000045
:107580002DE9F84305460E461746984669461048C9
:10759000006802F0A2FB044614B90420BDE8F88399
:1075A0001C212046FCF733F8012020712560C4F827
:1075B000088008480068B6FBF0F0E0606761694643
:1075C0000348006802F0B3FB06F016FF0020E5E771
:1075D000981003008C10030010B50446D4E9032171
:1075E000501828DF10BD000013480078062820D16D
:1075F0001148001D007800F00F00D0B90E48083087
:10760000007800F0F000302801D1012070470A48CE
:107610000830007800F0F000402801D10120F5E7A3
:1076200005480830007800F0F000502801D1012012
:10763000ECE70020EAE70000E00F00F013480078D4
:10764000062820D11148001D007800F00F00D0B9A5
:107650000E480830007800F0F000302801D10120F9
:1076600070470A480830007800F0F000402801D147
:107670000120F5E705480830007800F0F0005028B8
:1076800001D10120ECE70020EAE70000E00F00F064
:1076900013480078062820D11148001D007800F01A
:1076A0000F00D0B90E480830007800F0F000302804
:1076B00001D1012070470A480830007800F0F0003E
:1076C000402801D10120F5E705480830007800F096
:1076D000F000502801D10120ECE70020EAE700008B
:1076E000E00F00F00A48007806280ED10848001D77
:1076F000007800F00F0040B905480830007800F02D
:10770000F000302801D1012070470020FCE7000084
:10771000E00F00F013480078062820D11148001D22
:10772000007800F00F00D0B90E480830007800F063
:10773000F000302801D1012070470A480830007855
:1077400000F0F000402801D10120F5E7054808309D
:10775000007800F0F000502801D10120ECE7002073
:10776000EAE70000E00F00F00A48007806280ED192
:107770000848001D007800F00F0040B905480830A7
:10778000007800F0F000302801D10120704700207F
:10779000FCE70000E00F00F013480078062820D135
:1077A0001148001D007800F00F00D0B90E480830D5
:1077B000007800F0F000302801D1012070470A481D
:1077C0000830007800F0F000402801D10120F5E7F2
:1077D00005480830007800F0F000502801D1012061
:1077E000ECE70020EAE70000E00F00F00A4800782C
:1077F00006280ED10848001D007800F00F0040B99F
:1078000005480830007800F0F000302801D1012050
:1078100070470020FCE70000E00F00F00A48007805
:1078200006280ED10848001D007800F00F0040B96E
:1078300005480830007800F0F000302801D1012020
:1078400070470020FCE70000E00F00F00A480078D5
:1078500006280ED10848001D007800F00F0040B93E
:1078600005480830007800F0F000502801D10120D0
:1078700070470020FCE70000E00F00F00278072AC4
:1078800038D2DFE802F037040712222B340000223E
:107890000A7030E001220A7003898B818388CB81D2
:1078A000C2688A6000230B7425E002220A700389F3
:1078B0008B818388CB81C2688A60827D062A01D150
:1078C000012300E000230B7415E003220A70C38833
:1078D0008B810389CB81C2688A600CE004220A7024
:1078E000C3888B810023CB8100228A6003E00522BC
:1078F0000A7000E000BF00BF7047000070B5054689
:10790000002409E0064850F8240020B1044850F84B
:10791000241028468847641C042CF3D370BD000053
:107920002C31002030B585B004460D4620688068B3
:1079300008B905B030BD14216846FBF768FE019513
:10794000A0680490207910B1012813D107E001202C
:107950008DF8000020690290606903900BE002201E
:107960008DF800000749E0680968484302906069A3
:10797000039000E000BF00BF206881686846884728
:1079800000BFD6E78C10030070B586B006460C46E3
:1079900015469CB3112C31D0082C2FD0142101A8EE
:1079A000FBF735FEADF80660304601F02FFAADF872
:1079B00008000D2C14D103208DF804002DB1287877
:1079C00000F0010008B1012000E002208DF80C0059
:1079D00000218DF8101041F20111ADF80E1009E0F0
:1079E000862C03D106208DF8040003E007208DF8D3
:1079F0000400039401A800F055F800BF06B070BD64
:107A000010B50446204600F04DF810BD70B5044690
:107A1000608801F0FBF9A080002505E0044850F8DB
:107A20002510204688476D1C002DF7D070BD000042
:107A30004C24002070B50546002405E0044850F8A9
:107A4000241028468847641C022CF7D370BD000020
:107A5000640F030070B50546002405E0054850F8A2
:107A6000241028468847641C034800788442F5DBCC
:107A700070BD0000FC2E00208624002070B5044656
:107A8000608801F0C3F9A080002505E0044850F8A3
:107A90002510204688476D1C002DF7D070BD0000D2
:107AA000BC0F030070B50546002405E0044850F8FB
:107AB000241028468847641C002CF7D070BD0000B5
:107AC00010100300F0B5034600241FE0124E30688A
:107AD00006689E4203D90668F61A06601AE0066830
:107AE0009B1B06683444002606600B4E35680A4F1F
:107AF000C6693E60C66846B10E1926F07F464660EC
:107B0000C66886601668C661156000BF02480068D6
:107B10000028DBD100BFF0BD1C25002010B586B0C9
:107B20000446142101A8FBF772FDA08900F03AFA7F
:107B3000ADF808002078062858D2DFE800F0570397
:107B400004052E4C00BF00BFA08900F030FA18B920
:107B5000E08906F04AFEF8B1E08906F043FE8DF8B0
:107B60000C002078032801D1012100E000218DF8CC
:107B70000D10A1680491606830B908208DF80400E8
:107B800001218DF8141004E009208DF804006168CB
:107B9000059101A805F02CF829E0A08900F007FA6A
:107BA000C0B1E089B0B9606838B90A208DF8040026
:107BB000BDF8080005F038FA02E00B208DF804004B
:107BC0000020104908701049087005F083F901A8D9
:107BD00005F00EF80BE013208DF804004FF6FF704F
:107BE000ADF8080001A805F003F800E000BF00BFF1
:107BF0000448007820B100200249087005F06AF9B5
:107C000006B010BD612400206224002038B505466E
:107C10000E48007808B9022038BD4FF6FF70854243
:107C200001D10420F8E7684606F0BEFA04460CB914
:107C30000820F1E70520207001202071E5806846CA
:107C400006F0C2FA06F0C6FB0020E5E7302500206A
:107C500038B50D48007808B9022038BD684606F0EE
:107C6000A3FA04460CB90820F7E7062020706846FE
:107C700006F0AAFA0548007810B1012003490873FC
:107C800006F0A8FB0020E8E73025002000320020A5
:107C90002DE9F04387B0142102A8FBF7B8FC334864
:107CA000007830B102A8FFF729FE002007B0BDE838
:107CB000F0832E4E361D4FF001086A46414630468D
:107CC000FBF7B4FA814600BF00BFB9F1000F01D045
:107CD0000020EBE700F00CFA07460FB13846E5E765
:107CE00006F0A4FA04F074FC0546280004D002282B
:107CF00003D006280DD102E000BF0B20D6E70120FB
:107D00001A4908700020486002A8FFF7F7FD00201C
:107D1000CCE700BF00BF01A806F046FA04460CB944
:107D20000820C3E7012020700C2D16D2DFE805F0F3
:107D30001506150715111512150A0E0B00BF0020A8
:107D400020710BE000BF0320207107E002202071AA
:107D500004E000BF0120207100E000BF00BF01A8C7
:107D600006F032FA06F036FB00209FE730250020AF
:107D700038B504460CB9052038BD6946204606F0E2
:107D800035FC00B3BDF8000000EB80000F4901EBAB
:107D90008000C068A8B1A07A98B1BDF8000000EBDF
:107DA000800001EB8000C068401EBDF8001001EBB0
:107DB0008101064A02EB8101C8600020A072002503
:107DC00002E0062500E00A252846D5E7D831002044
:107DD0007FB514461D462B46224601A9684606F08B
:107DE000A1FB04B070BD37B50C4615462B462246A4
:107DF0006946002006F096FB3EBD37B50C46154699
:107E00002B4622460021684606F08CFB3EBD02460A
:107E100002B109B905207047106808600020FAE730
:107E2000F8B504460D4604B10DB90520F8BD694604
:107E3000204606F0DBFBA0B16668BDF8001001EB40
:107E40008101094A02EB810101F10C00012101F0DD
:107E500087FF2E6060680C3068600120A0720020EF
:107E6000E4E70A20E2E70000D831002070B50446BC
:107E70000D460CB9052070BD03230022294620467B
:107E800008F094FEF7E770B504460D460223002281
:107E90002946204608F08AFE70BD70B505460E469C
:107EA00014460CB9052070BD0223224631462846EF
:107EB00008F07CFEF7E7000070B50546084800684A
:107EC000042801D10C2409E006480549096840F856
:107ED00021500121024801F043FF0024204670BDDB
:107EE0003C2500202C310020F8B504460D460A48F8
:107EF000007808B90220F8BD0CB90520FBE76946F7
:107F0000284608F063FF06461EB9BDF80000208031
:107F100065803046EFE700003025002070B504464C
:107F20001148007808B9022070BD0CB90520FBE7A4
:107F30002088022801DD0420F6E7208800EB80007D
:107F40000A4901EB80066088C01C7189884208DC00
:107F50002188608808F028FF0020208060800025AC
:107F600000E004252846DFE730250020D831002036
:107F70003EB504460A4B6A460021A01D06F0D2FA1F
:107F8000054635B9064A9188019806F0A9FB0546D1
:107F900003E0034800210160416028463EBD000027
:107FA0004C2500200146A1F5404080B270470146B3
:107FB000B1F5404F05DB4FF6FE70814201DC012038
:107FC00070470020FCE710B504462078182802D13D
:107FD000FDF7CCF9207010BD10B5044620781828A4
:107FE00002D1FDF7C3F9207010BD30B504461088EA
:107FF000C01C984201D90C2030BD0220158848557C
:108000001088401C10800120158848551088401C9D
:10801000108015884C551088401C10800020EBE71C
:108020002DE9F04106460C4615460027B846862C39
:1080300002D100BF012708E0112C03D14FF0010845
:10804000002702E04FF000080027C5B13A46134868
:1080500001783046FDF7BEF94246114801783046B6
:10806000FDF7B8F900220F4801783046FDF7B2F964
:1080700000220D4801783046FDF7ACF90BE03A4696
:10808000084801783046FDF7A5F9424606480178D0
:108090003046FDF79FF9BDE8F0810000A9240020DB
:1080A000A8240020A5240020A424002010B500202E
:1080B00002F0A2FA10BD000010B54FF4405400F0D9
:1080C00009F80349086108460069001BC86010BD33
:1080D000C82500204FF0102041690004026943695F
:1080E000481C08B10846704703FB02F0FBE700009C
:1080F00010B5FFF7E1FF00220249034802F06DFAD4
:1081000010BD00009C100300C825002010B50446D7
:10811000606806F0B9F810BD3EB500BF9DF80000DC
:1081200020F00F00401C00909DF8000020F0F000AF
:108130001030009000BF0B2218A168467CDF044677
:1081400000BF25463DB100BF17A24FF41C71284661
:10815000FCF7C2F900BF00BF0020019002904FF46D
:10816000C870ADF804004000ADF806000020ADF87E
:1081700008004FF4C870ADF80A0001A87ADF044681
:1081800000BF25463DB100BF07A240F27A21284634
:10819000FCF7A2F900BF00BF3EBD00004E6F726445
:1081A00069635F5955414E002E2E5C2E2E5C2E2E9B
:1081B0005C6D61696E2E630070B50021084801F0A6
:1081C00052FE044600BF25463DB100BF05A240F265
:1081D00083212846FCF780F900BF00BF70BD000076
:1081E000B42600202E2E5C2E2E5C2E2E5C6D616936
:1081F0006E2E630070B505460DB1012070BD1848A4
:10820000007B18B100201649087301E000F0DEF889
:108210001348007808281DD2DFE800F01C04080C81
:10822000101C141800F03EF8044615E000F0BCF8ED
:10823000044611E000F098F804460DE000F046F81E
:10824000044609E000F02CF9044605E000F03AF994
:10825000044601E00F2400BF00BF2046CEE7000027
:10826000003200200D480089401C0C490881002084
:108270004880087300BF0DE000EB8001084A12F847
:10828000211009B9012200E0002204490A310A54F0
:10829000411C88B20228EFDB70470000003200204A
:1082A000D831002010B5084800F036F840B9002059
:1082B0000549891E08704880486041F61D5010BD70
:1082C00000F072F8FBE700000232002070B50F48A2
:1082D000458805EB85000E4901EB8000C06878B940
:1082E00004200A49087005EB8500094A02EB80006A
:1082F000002301224168074802F045F9044602E0E4
:1083000000F090F80446204670BD000000320020C6
:10831000D8310020C825002010B5014600220020D9
:1083200018E00F4B1B5C9BB100240D4B1C5400EB61
:1083300080030C4C04EB8303DB684BB900EB800338
:1083400004EB83031B7C012B02D10880012203E094
:10835000431C98B20228E4DB00BF104610BD0000A9
:108360000A320020D8310020F8B50C4844680C4887
:1083700000680B49898800EB81056088C01C86B2C3
:108380000320064908700020B300009008462946E3
:108390004268044802F0BCF9F8BD00000032002039
:1083A00044250020C825002010B507494888091D2C
:1083B00006F05AF918B1FFF7D7FF044602E0FFF7BD
:1083C00085FF0446204610BD0032002010B5144839
:1083D0000078082820D2DFE800F0041F1F0A1016DA
:1083E000171BFFF73FFF01200D49087015E000F053
:1083F00075F802200A4908700FE000F029F80620FD
:108400000749087009E000BF07200549087004E02B
:1084100001200349087000E000BF00BF10BD00004C
:108420000032002010B505200649087002200649D8
:1084300088800846002301220168044802F0A3F85E
:1084400010BD00000032002044250020C825002077
:10845000104908681049498801EB81010F4A02EB75
:10846000810149680B4A11600B49498801EB810180
:108470000A4A02EB8101486006498988064A528807
:1084800002EB8202054B03EB820211810221014AB9
:10849000918070474425002000320020D831002010
:1084A00010B5062005490870498801EB8101044A8E
:1084B00002EB8101486804F069F810BD0032002029
:1084C000D831002010B5072003490870002048600B
:1084D00004F06CF810BD000000320020054A50681E
:1084E0004288D21C91B2044A92880A44024B9A8074
:1084F00070470000003200204425002030B585B0D0
:108500000446A5882088502828D0522802D0542814
:108510002FD103E0284601F0E1F82AE014221A499D
:108520006846FBF75BF8ADF80250284600F06EFC99
:10853000ADF80400BDF8040000F066F9002213480D
:1085400001782846FCF746FF0022114801782846AA
:10855000FCF740FF6846FFF759FA0AE0A01DFEF756
:10856000A9F828B10121284601F0F8F808F0A2F88E
:1085700000BF00BF00BF0748007804F007FF00BF3E
:1085800006F0D0FE05B030BD380F030055240020A2
:10859000542400205324002010B50446207868B9E4
:1085A000608801F09BF8608800F0F4F928B16088D9
:1085B000012204490978FCF70DFF00E000BF00BF6D
:1085C00010BD00005424002010B500F0EBFDFCF7B6
:1085D000CDFE14490870FCF7C9FE13490870FCF77A
:1085E000C5FE12490870FCF7C1FE114908700D481C
:1085F000007818280BD00C480078182807D00B48B2
:108600000078182803D008460078182801D10320E4
:1086100010BD0121074805F021FA01200649087024
:108620000020F5E752240020532400205424002089
:1086300055240020512400205024002010B592B071
:1086400000F0FAF801A8FCF733FE002412E002A9BA
:1086500031F8140000F0DAFB4FF6FF71884207D1C1
:1086600002A931F81400012206490978FCF7B2FE8C
:10867000601C84B20198A042E9D806F053FE12B003
:1086800010BD0000542400207CB504462078082842
:108690003AD1607A002837D1207A012811D00728F2
:1086A00002D008282ED128E0A08800F07DFA0546E7
:1086B0004FF6FF70854203D00121284601F04EF8A5
:1086C00021E0A0886A46012104F03EF906469EB9E1
:1086D0000198007880B1A08800F066FA05464FF650
:1086E000FF70854207D00122094801782846FCF72F
:1086F00071FE06F017FE00BF05E00021054805F0F9
:10870000F1F900E000BF00BF07F0D4FF7CBD00001E
:10871000542400205124002010B504460B48017851
:108720002046FCF743FE70B100210AE001EB410056
:10873000074A02EB80004088A04201D1C8B210BDB8
:10874000491C1429F2D3FF20F9E700005D24002022
:10875000EC2C002010B500240DE004EB4401084A85
:1087600002EB8101488807490978FCF71FFE08B928
:10877000E0B210BD641C142CEFD3FF20F9E7000019
:10878000EC2C00205D2400202DE9F04105460F4629
:10879000012000FA05F418480068FCF72BF806469B
:1087A0000EB1BDE8F081154800682040E0B92846C8
:1087B00001F08AFD28B11248006820431049086082
:1087C00004E00F480068A0430D4908600B480068AA
:1087D00020430A49086000220A48016806480068E8
:1087E000FBF7DEFF064604E004480068A0430349A7
:1087F000086000BFD5E700005C10030008250020DA
:1088000004250020002500201CB50446044903C9A6
:10881000CDE9000100226946204604F0CCF81CBDD9
:108820005C0F030010B500F0C3FC01200149087083
:10883000002010BD5624002010B54FF6FF7004F044
:1088400033F80249088006F075FD10BD5824002059
:108850002DE9FC478146484600F0D8FA0546002637
:1088600000274FF003084FF0010A4FF6FF708542D2
:108870000CD06A460821284604F066F804462CB954
:108880000198861D8788D0F8008000BF00BF43464E
:108890003A4631464846A9DF0446042C01D111244A
:1088A00015E0082C01D1002411E00B2C0FD14FF062
:1088B000000A08F0020010B14FF0010807E006B905
:1088C00027B1002600274FF0030800E003240B2CFB
:1088D000DDD0BAF1000F00D10B242046BDE8FC87A3
:1088E0002DE9FC478046404600F090FA06464FF6D8
:1088F000FF70864203D143F20200BDE8FC874FF0CF
:1089000001094FF0000A00BF4FF0000A4A46511C0F
:108910001FFA81F96B460821304604F057F80446E7
:108920000CBB019D032028602A1DA91D40462B6811
:10893000AADF044634B932460821304604F0FFF875
:1089400004460FE00C2C02D14FF0010A02E0052C86
:1089500000D100240821304604F0D6F8074607B1BC
:10896000032400BF02E0072C00D10C24BAF1000F51
:10897000CAD100BF2046C0E710B5044604480088AD
:108980004FF6FF71884201D006F0D4FC10BD000004
:1089900058240020FEB5044602A80190204600F0AD
:1089A00035FA06466A460121304603F0CDFF0546FA
:1089B0000DB10020FEBD01980078FBE770B50546BB
:1089C0004FF6FF760E48ABDF04460CB1032070BDB6
:1089D00000BF4FF6FF720A4801882846A7DF044609
:1089E00043F20300844204D105480088401C044936
:1089F000088043F203008442EBD02046E7E7000002
:108A00005A24002070B504460D46204600F01AF89E
:108A1000A84201D9022070BDA0884FF6FF7188429C
:108A200001D0208808B90120F5E70020F3E70246CD
:108A300013468B4204D21868401C08B101207047CD
:108A40000020FCE701464A8801F10C0000EB82009F
:108A500070473EB504460D4620780221B1EB500F19
:108A600001D000203EBDB4F80100ADF80800E07868
:108A70008DF80A00A188ADF80010A0798DF80200E9
:108A800001AA69462846FBF7C9FB032201A902A8EF
:108A9000FAF7CFFD08B90120E4E70020E2E7000083
:108AA00070B506460C463046FFF736FE0546FF2DEC
:108AB0000CD005EB4500064901EB800041682160C0
:108AC0000189A180807AA071002070BD0520FCE79B
:108AD000EC2C002070B592B005462888102801D0F3
